:020000040800F2
:10000000000001200D350008B3280008B5280008BD
:10001000B7280008B9280008BB2800080000000025
:10002000000000000000000000000000BD280008E3
:10003000BF28000800000000C1280008C3280008ED
:100040005D3500085D350008C52800085D350008ED
:100050005D3500085D3500085D3500085D35000838
:100060005D3500085D3500085D350008D5280008BD
:10007000E5280008F52800085D3500085D35000812
:100080005D3500085D3500085D3500085D35000808
:10009000000000005D350008052900085D350008F6
:1000A0005D3500085D3500085D3500085D350008E8
:1000B0005D350008112900085D3500085D35000830
:1000C0005D3500085D3500085D3500085D350008C8
:1000D0005D3500085D350008212900085D35000800
:1000E0005D3500085D350008312900085D350008E0
:1000F0005D35000800000000000000005D350008CC
:100100005D3500085D350008412900085D350008AF
:100110005D3500085D3500085D3500085D35000877
:100120005D3500085D3500085D3500085D35000867
:080130005D3500085D35000893
:1001400010B5054C237833B9044B13B10448AFF311
:1001500000800123237010BDD803002000000000A0
:100160002C9E010808B5034B1BB103490348AFF3AC
:10017000008008BD00000000DC0300202C9E010868
:1001800001F0FF01102A2BDB10F0070F08D010F848
:10019000013B013A8B422DD010F0070F42B3F6D14C
:1001A000F0B441EA012141EA014122F007047FF065
:1001B00000070023F0E80256083C85EA010586EABC
:1001C000010685FA47F5A3FA87F586FA47F6A5FAF8
:1001D00087F68EB9EED1F0BC01F0FF0102F0070204
:1001E00032B110F8013B013A83EA010313B1F8D1AF
:1001F0000020704701387047002D06BF3546033890
:10020000073815F0010F07D1013015F4807F02BFC8
:10021000013015F4C03F0130F0BC0138704700BF19
:10022000034613F8012B002AFBD1181A0138704736
:1002300081F0004102E000BF83F0004330B54FEA97
:1002400041044FEA430594EA050F08BF90EA020F04
:100250001FBF54EA000C55EA020C7FEA645C7FEA97
:10026000655C00F0E2804FEA5454D4EB5555B8BFBA
:100270006D420CDD2C4480EA020281EA030382EA2B
:10028000000083EA010180EA020281EA0303362DBD
:1002900088BF30BD11F0004F4FEA01314FF4801C90
:1002A0004CEA113102D0404261EB410113F0004FA2
:1002B0004FEA03334CEA133302D0524263EB430359
:1002C00094EA050F00F0A780A4F10104D5F1200EF7
:1002D0000DDB02FA0EFC22FA05F2801841F1000152
:1002E00003FA0EF2801843FA05F359410EE0A5F126
:1002F00020050EF1200E012A03FA0EFC28BF4CF057
:10030000020C43FA05F3C01851EBE37101F000450C
:1003100007D54FF0000EDCF1000C7EEB00006EEB19
:100320000101B1F5801F1BD3B1F5001F0CD34908A3
:100330005FEA30004FEA3C0C04F101044FEA4452FA
:1003400012F5800F80F09A80BCF1004F08BF5FEA81
:10035000500C50F1000041EB045141EA050130BD61
:100360005FEA4C0C404141EB0101013C28BFB1F573
:10037000801FE9D291F0000F04BF01460020B1FABE
:1003800081F308BF2033A3F10B03B3F120020CDA91
:100390000C3208DD02F1140CC2F10C0201FA0CF06F
:1003A00021FA02F10CE002F11402D8BFC2F1200CD4
:1003B00001FA02F120FA0CFCDCBF41EA0C0190408A
:1003C000E41AA2BF01EB0451294330BD6FEA0404D3
:1003D0001F3C1CDA0C340EDC04F11404C4F12002BE
:1003E00020FA04F001FA02F340EA030021FA04F3D0
:1003F00045EA030130BDC4F10C04C4F1200220FA27
:1004000002F001FA04F340EA0300294630BD21FA64
:1004100004F0294630BD94F0000F83F4801306BF2A
:1004200081F480110134013D4EE77FEA645C18BF1E
:100430007FEA655C29D094EA050F08BF90EA020FB5
:1004400005D054EA000C04BF1946104630BD91EAAD
:10045000030F1EBF0021002030BD5FEA545C05D1B0
:100460004000494128BF41F0004130BD14F58004EF
:100470003CBF01F5801130BD01F0004545F0FE4163
:1004800041F470014FF0000030BD7FEA645C1ABF98
:10049000194610467FEA655C1CBF0B46024650EACF
:1004A000013406BF52EA033591EA030F41F40021FB
:1004B00030BD00BF90F0000F04BF0021704730B581
:1004C0004FF4806404F132044FF000054FF0000156
:1004D00050E700BF90F0000F04BF0021704730B517
:1004E0004FF4806404F1320410F0004548BF4042EC
:1004F0004FF000013EE700BF42004FEAE2014FEA41
:1005000031014FEA02701FBF12F07F4393F07F4F1B
:1005100081F06051704732F07F4208BF704793F01E
:100520007F4F04BF41F40021704730B54FF4607431
:1005300001F0004521F000411CE700BF50EA010234
:1005400008BF704730B54FF000050AE050EA0102DD
:1005500008BF704730B511F0004502D5404261EB4D
:1005600041014FF4806404F132045FEA915C3FF48E
:10057000D8AE4FF003025FEADC0C18BF03325FEA2B
:10058000DC0C18BF033202EBDC02C2F1200300FADC
:1005900003FC20FA02F001FA03FE40EA0E0021FA01
:1005A00002F11444BDE600BF70B54FF0FF0C4CF4EF
:1005B000E06C1CEA11541DBF1CEA135594EA0C0FA1
:1005C00095EA0C0F00F0DEF82C4481EA030621EADC
:1005D0004C5123EA4C5350EA013518BF52EA033517
:1005E00041F4801143F4801338D0A0FB02CE4FF0C9
:1005F0000005E1FB02E506F00042E0FB03E54FF0F9
:100600000006E1FB03569CF0000F18BF4EF0010EF0
:10061000A4F1FF04B6F5007F64F5407404D25FEAEC
:100620004E0E6D4146EB060642EAC62141EA55519F
:100630004FEAC52040EA5E504FEACE2EB4F1FD0CE1
:1006400088BFBCF5E06F1ED8BEF1004F08BF5FEA5F
:10065000500E50F1000041EB045170BD06F0004611
:1006600046EA010140EA020081EA0301B4EB5C04BE
:10067000C2BFD4EB0C0541EA045170BD41F48011B6
:100680004FF0000E013C00F3AB8014F1360FDEBFDB
:10069000002001F0004170BDC4F10004203C35DAB7
:1006A0000C341BDC04F11404C4F1200500FA05F33A
:1006B00020FA04F001FA05F240EA020001F00042DB
:1006C00021F0004110EBD37021FA04F642EB060151
:1006D0005EEA430E08BF20EAD37070BDC4F10C047B
:1006E000C4F1200500FA04F320FA05F001FA04F23F
:1006F00040EA020001F0004110EBD37041F100012B
:100700005EEA430E08BF20EAD37070BDC4F1200535
:1007100000FA05F24EEA020E20FA04F301FA05F29D
:1007200043EA020321FA04F001F0004121FA04F245
:1007300020EA020000EBD3705EEA430E08BF20EA15
:10074000D37070BD94F0000F0FD101F0004640004F
:1007500041EB010111F4801F08BF013CF7D041EAD1
:10076000060195F0000F18BF704703F000465200D5
:1007700043EB030313F4801F08BF013DF7D043EAA6
:100780000603704794EA0C0F0CEA135518BF95EA5C
:100790000C0F0CD050EA410618BF52EA4306D1D1E3
:1007A00081EA030101F000414FF0000070BD50EA02
:1007B000410606BF1046194652EA430619D094EA8C
:1007C0000C0F02D150EA013613D195EA0C0F05D176
:1007D00052EA03361CBF104619460AD181EA0301CA
:1007E00001F0004141F0FE4141F470014FF0000082
:1007F00070BD41F0FE4141F4780170BD70B54FF01D
:10080000FF0C4CF4E06C1CEA11541DBF1CEA13559C
:1008100094EA0C0F95EA0C0F00F0A7F8A4EB05047E
:1008200081EA030E52EA03354FEA013100F0888075
:100830004FEA03334FF0805545EA131343EA12633E
:100840004FEA022245EA111545EA10654FEA0026F3
:100850000EF000419D4208BF964244F1FD0404F5AC
:10086000407402D25B084FEA3202B61A65EB030508
:100870005B084FEA32024FF480104FF4002CB6EBC5
:10088000020E75EB030E22BFB61A754640EA0C0045
:100890005B084FEA3202B6EB020E75EB030E22BF85
:1008A000B61A754640EA5C005B084FEA3202B6EBC6
:1008B000020E75EB030E22BFB61A754640EA9C0085
:1008C0005B084FEA3202B6EB020E75EB030E22BF55
:1008D000B61A754640EADC0055EA060E18D04FEA13
:1008E000051545EA16754FEA06164FEAC30343EAB3
:1008F00052734FEAC2025FEA1C1CC0D111F4801F80
:100900000BD141EA00014FF000004FF0004CB6E778
:1009100011F4801F04BF01430020B4F1FD0C88BF17
:10092000BCF5E06F3FF6AFAEB5EB030C04BFB6EB22
:10093000020C5FEA500C50F1000041EB045170BD15
:100940000EF0004E4EEA113114EB5C04C2BFD4EB42
:100950000C0541EA045170BD41F480114FF0000EC6
:10096000013C90E645EA060E8DE60CEA135594EA42
:100970000C0F08BF95EA0C0F3FF43BAF94EA0C0F45
:100980000AD150EA01347FF434AF95EA0C0F7FF4BA
:1009900025AF104619462CE795EA0C0F06D152EA0E
:1009A00003353FF4FDAE1046194622E750EA4106F2
:1009B00018BF52EA43067FF4C5AE50EA41047FF403
:1009C0000DAF52EA43057FF4EBAE12E74FF0FF3C68
:1009D00006E000BF4FF0010C02E000BF4FF0010C39
:1009E0004DF804CD4FEA410C7FEA6C5C4FEA430CB2
:1009F00018BF7FEA6C5C1BD001B050EA410C0CBF01
:100A000052EA430C91EA030F02BF90EA020F002062
:100A1000704710F1000F91EA030F58BF994208BFC9
:100A200090422CBFD8176FEAE37040F00100704786
:100A30004FEA410C7FEA6C5C02D150EA013C07D1DD
:100A40004FEA430C7FEA6C5CD6D152EA033CD3D028
:100A50005DF8040B704700BF8446104662468C4622
:100A60001946634600E000BF01B5FFF7B7FF002855
:100A700048BF10F1000F01BD4DF808EDFFF7F4FF7E
:100A80000CBF012000205DF808FB00BF4DF808ED09
:100A9000FFF7EAFF34BF012000205DF808FB00BF2C
:100AA0004DF808EDFFF7E0FF94BF012000205DF84E
:100AB00008FB00BF4DF808EDFFF7CEFF94BF012003
:100AC00000205DF808FB00BF4DF808EDFFF7C4FFFC
:100AD00034BF012000205DF808FB00BF4FEA410C45
:100AE0007FEA6C5C02D150EA013C0AD14FEA430C28
:100AF0007FEA6C5C02D152EA033C02D14FF0000065
:100B000070474FF0010070474FEA410212F50012A2
:100B100015D211D56FF47873B3EB625212D94FEA44
:100B2000C12343F0004343EA505311F0004F23FA2E
:100B300002F018BF404270474FF00000704750EA83
:100B4000013005D111F0004008BF6FF00040704740
:100B50004FF00000704700BF4A0011D212F500129A
:100B600011D20DD56FF47873B3EB62520ED44FEA05
:100B7000C12343F0004343EA505323FA02F0704785
:100B80004FF00000704750EA013002D14FF0FF30C3
:100B900070474FF0000070474FEA4102B2F1E04366
:100BA00024BFB3F5001CDCF1FE5C0DD901F0004C54
:100BB0004FEAC0024CEA5070B2F1004F40EB8300A4
:100BC00008BF20F00100704711F0804F21D113F1D0
:100BD0003872BCBF01F00040704741F480114FEA09
:100BE0005252C2F11802C2F1200C10FA0CF320FA92
:100BF00002F018BF40F001004FEAC1234FEAD323AF
:100C000003FA0CFC40EA0C0023FA02F34FEA430318
:100C1000CCE77FEA625307D150EA01331EBF4FF0A1
:100C2000FE4040F44000704701F0004040F0FE40BC
:100C300040F40000704700BF80F0004002E000BFB9
:100C400081F0004142001FBF5FEA410392EA030FB7
:100C50007FEA226C7FEA236C6AD04FEA1262D2EB01
:100C60001363C1BFD218414048404140B8BF5B4206
:100C7000192B88BF704710F0004F40F4000020F09F
:100C80007F4018BF404211F0004F41F4000121F0B5
:100C90007F4118BF494292EA030F3FD0A2F10102FF
:100CA00041FA03FC10EB0C00C3F1200301FA03F13D
:100CB00000F0004302D5494260EB4000B0F5000F60
:100CC00013D3B0F1807F06D340084FEA310102F11F
:100CD0000102FE2A51D2B1F1004F40EBC25008BFD1
:100CE00020F0010040EA03007047490040EB00009B
:100CF000013A28BFB0F5000FEDD2B0FA80FCACF19C
:100D0000080CB2EB0C0200FA0CF0AABF00EBC250C8
:100D100052421843BCBFD0401843704792F0000FB6
:100D200081F4000106BF80F400000132013BB5E709
:100D30004FEA41037FEA226C18BF7FEA236C21D07F
:100D400092EA030F04D092F0000F08BF08467047E4
:100D500090EA010F1CBF0020704712F07F4F04D1B2
:100D6000400028BF40F00040704712F100723CBFC5
:100D700000F50000704700F0004343F0FE4040F4EF
:100D8000000070477FEA226216BF08467FEA2363AD
:100D90000146420206BF5FEA412390EA010F40F498
:100DA000800070474FF0000304E000BF10F00043E4
:100DB00048BF40425FEA000C08BF704743F09643CB
:100DC00001464FF000001CE050EA010208BF7047E6
:100DD0004FF000030AE000BF50EA010208BF70476D
:100DE00011F0004302D5404261EB41015FEA010C82
:100DF00002BF84460146002043F0B64308BFA3F17A
:100E00008053A3F50003BCFA8CF2083AA3EBC2535B
:100E100010DB01FA02FC634400FA02FCC2F120027A
:100E2000BCF1004F20FA02F243EB020008BF20F0B1
:100E30000100704702F1200201FA02FCC2F1200217
:100E400050EA4C0021FA02F243EB020008BF20EA0C
:100E5000DC7070474FF0FF0C1CEAD0521EBF1CEA3A
:100E6000D15392EA0C0F93EA0C0F6FD01A4480EA28
:100E7000010C400218BF5FEA41211ED04FF0006311
:100E800043EA501043EA5111A0FB01310CF000403D
:100E9000B1F5000F3EBF490041EAD3715B0040EA63
:100EA000010062F17F02FD2A1DD8B3F1004F40EB33
:100EB000C25008BF20F00100704790F0000F0CF006
:100EC000004C08BF49024CEA502040EA51207F3ACA
:100ED000C2BFD2F1FF0340EAC250704740F40000A5
:100EE0004FF00003013A5DDC12F1190FDCBF00F096
:100EF00000407047C2F10002410021FA02F1C2F144
:100F0000200200FA02FC5FEA310040F1000053EADF
:100F10004C0308BF20EADC70704792F0000F00F02D
:100F2000004C02BF400010F4000F013AF9D040EA33
:100F30000C0093F0000F01F0004C02BF490011F4C7
:100F4000000F013BF9D041EA0C018FE70CEAD153C5
:100F500092EA0C0F18BF93EA0C0F0AD030F0004C45
:100F600018BF31F0004CD8D180EA010000F00040F9
:100F7000704790F0000F17BF90F0004F084691F0B7
:100F8000000F91F0004F14D092EA0C0F01D14202F1
:100F90000FD193EA0C0F03D14B0218BF084608D1BA
:100FA00080EA010000F0004040F0FE4040F4000004
:100FB000704740F0FE4040F4400070474FF0FF0C97
:100FC0001CEAD0521EBF1CEAD15392EA0C0F93EADE
:100FD0000C0F69D0A2EB030280EA010C49024FEA30
:100FE000402037D04FF0805343EA111143EA1013E9
:100FF0000CF000408B4238BF5B0042F17D024FF4A1
:10100000000C8B4224BF5B1A40EA0C00B3EB510F7B
:1010100024BFA3EB510340EA5C00B3EB910F24BF64
:10102000A3EB910340EA9C00B3EBD10F24BFA3EBE9
:10103000D10340EADC001B0118BF5FEA1C1CE0D1B1
:10104000FD2A3FF650AF8B4240EBC25008BF20F064
:10105000010070470CF0004C4CEA50207F32C2BFB8
:10106000D2F1FF0340EAC250704740F400004FF055
:101070000003013A37E792F0000F00F0004C02BF86
:10108000400010F4000F013AF9D040EA0C0093F050
:10109000000F01F0004C02BF490011F4000F013BAA
:1010A000F9D041EA0C0195E70CEAD15392EA0C0F12
:1010B00008D142027FF47DAF93EA0C0F7FF470AF4A
:1010C000084676E793EA0C0F04D14B023FF44CAF8D
:1010D00008466EE730F0004C18BF31F0004CCAD122
:1010E00030F000427FF45CAF31F000437FF43CAF5E
:1010F0005FE700BF4FF0FF3C06E000BF4FF0010C80
:1011000002E000BF4FF0010C4DF804CD4FEA400261
:101110004FEA41037FEA226C18BF7FEA236C11D0AB
:1011200001B052EA530C18BF90EA010F58BFB2EB5E
:10113000030088BFC81738BF6FEAE17018BF40F0DE
:10114000010070477FEA226C02D15FEA402C05D192
:101150007FEA236CE4D15FEA412CE1D05DF8040B17
:10116000704700BF844608466146FFE70FB5FFF7AA
:10117000C9FF002848BF10F1000F0FBD4DF808ED62
:10118000FFF7F4FF0CBF012000205DF808FB00BF53
:101190004DF808EDFFF7EAFF34BF012000205DF8AD
:1011A00008FB00BF4DF808EDFFF7E0FF94BF0120FA
:1011B00000205DF808FB00BF4DF808EDFFF7D2FFF7
:1011C00094BF012000205DF808FB00BF4DF808ED3A
:1011D000FFF7C8FF34BF012000205DF808FB00BF07
:1011E0004FEA40024FEA41037FEA226C02D15FEAF4
:1011F000402C08D17FEA236C02D15FEA412C02D156
:101200004FF0000070474FF0010070474FEA400276
:10121000B2F1FE4F0FD34FF09E03B3EB12620DD924
:101220004FEA002343F0004310F0004F23FA02F08E
:1012300018BF404270474FF00000704712F1610F35
:1012400001D1420205D110F0004008BF6FF000400C
:1012500070474FF00000704742000ED2B2F1FE4FCF
:101260000BD34FF09E03B3EB126209D44FEA002375
:1012700043F0004323FA02F070474FF0000070473C
:1012800012F1610F01D1420202D14FF0FF307047DD
:101290004FF00000704700BF53B94AB9002908BF9A
:1012A00000281CBF4FF0FF314FF0FF3000F088B92D
:1012B000ADF1080C6DE904CE00F006F8DDF804E0AD
:1012C000DDE9022304B070472DE9F047089D8E4602
:1012D00004468846002B4AD18A42174662D9B2FAA0
:1012E00082F64EB1C6F1200301FA06F820FA03F3A4
:1012F000B74043EA0808B4404FEA174E1FFA87FC8C
:10130000B8FBFEF1230C0EFB118843EA084301FBF6
:101310000CF29A4209D9FB1801F1FF3080F0EA8003
:101320009A4240F2E78002393B449A1AA3B2B2FBD8
:10133000FEF00EFB102243EA024300FB0CFC9C452E
:1013400009D9FB1800F1FF3280F0D6809C4540F2AD
:10135000D3803B44023840EA0140A3EB0C03002158
:101360001DB1F3400022C5E90032BDE8F0878B4291
:1013700005D90DB1C5E9000100210846F5E7B3FA2A
:1013800083F1002946D1734502D3824200F20581E0
:10139000841A6EEB030201209046002DE5D0C5E9CA
:1013A0000048E2E7002A00F09080B2FA82F6002EB0
:1013B00040F0A4808A1A030C4FEA174E80B2BCB2E8
:1013C0000121B2FBFEFC0EFB1C2243EA024304FB9C
:1013D0000CF29A4207D9FB180CF1FF3802D29A425C
:1013E00000F2E080C4469B1AB3FBFEF20EFB123300
:1013F00040EA034302FB04F49C4207D9FB1802F1C4
:10140000FF3002D29C4200F2CA8002461B1B42EA15
:101410000C40A5E7C1F120068B4022FA06F71F43D6
:101420000EFA01F420FA06F32EFA06FE4FEA1749E7
:10143000234300FA01F81FFA87FCBEFBF9F01C0CED
:1014400009FB10EE44EA0E4400FB0CFEA64502FA2E
:1014500001F209D93C1900F1FF3A80F09C80A645C1
:1014600040F2998002383C44A4EB0E041FFA83FE3C
:10147000B4FBF9F309FB13444EEA044403FB0CFCF0
:10148000A44508D93C1903F1FF3E80F08280A445B1
:101490007FD9023B3C4443EA0040A4EB0C04A0FB90
:1014A00002EC64457346E14662D35FD05DB1B8EBB0
:1014B000030264EB090404FA06F622FA01F31E4360
:1014C000CC40C5E9006400214FE7B1FBF2FC010C00
:1014D00041EA0E4180B240EA01423B4638463C4672
:1014E000B846BE462026B1FBF7F1A2EB080241EA5E
:1014F0000C4166E7014618E710462CE7C6F12002CA
:101500002EFA02F3B740B14020FA02F24FEA174E2A
:101510000A43B3FBFEF8BCB20EFB1833110C41EAD0
:10152000034108FB04F9B04089454FEA104380B2FB
:101530003ED9791808F1FF3C01D289451FD8A1EBAB
:101540000901B1FBFEF909FB04F80EFB191192B277
:1015500042EA0142424529D2BA1809F1FF31C4D208
:101560004245C2D2A9F102013A44BEE7F0459DD2FC
:10157000BEEB02036CEB070C0138E14696E7A7EBE4
:1015800009094944A8F1020CB1FBFEF909FB04F872
:10159000DBE773467FE7504666E70846FDE63B44D7
:1015A000023A33E7ACF1020C3B441CE749469CE7A6
:1015B000A1EB0901C446B1FBFEF909FB04F8C4E73D
:1015C000704700BF08B50A2001F0CEFA08BD08B583
:1015D0000A2001F0C9FA08BD10B5012014F054F931
:1015E000204C2070022014F04FF96070042014F099
:1015F0004BF9A070082014F047F9E070642001F066
:10160000B3FA0BF019FAA0B90446174B00221146A1
:10161000022014F063FC134B1B789BB1114B5B78D9
:10162000A3B1104B9B78ABB10E4BDB78B3B1204626
:1016300010BD0E4B00221146022014F04FFC6FF03B
:101640000104F4E7012014F011F9E7E7022014F097
:101650000DF9E6E7042014F009F9E5E7082014F095
:1016600005F9E4E740190020F49E0108D49E010822
:1016700010B5012014F008F9214C2070022014F05C
:1016800003F96070042014F0FFF8A070082014F033
:10169000FBF8E070012108460AF0F4FD194B002226
:1016A0001146022014F01AFC0A2001F05DFA23789A
:1016B000012B15D0124B5B78012B15D0104B9B786A
:1016C000012B15D00E4BDB78012B15D00E4B0022D1
:1016D0001146022014F002FC642001F045FA10BD0E
:1016E000012014F0DFF8E5E7022014F0DBF8E5E76D
:1016F000042014F0D7F8E5E7082014F0D3F8E5E764
:10170000401900201C9F0108509F010838B5164C55
:1017100020460AF0D1FF0546201D0BF0C9F955FA05
:1017200080F0C5B204F108000BF096F955FA80F587
:10173000EDB242F21073236304F134000BF0E6F9CA
:1017400055FA80F5EDB204F1100108200BF0B4FA5F
:1017500055FA80F5EDB204F1200109200BF0ACFA46
:1017600055FA80F040B238BDF803002070B5194C2E
:1017700060680BF0B2F90546264616F9080B0BF027
:10178000E7F955FA80F0C5B230460BF079F955FA11
:1017900080F5EDB294F834000BF0C4F955FA80F5F9
:1017A000EDB204F1100108200BF09DFA55FA80F516
:1017B000EDB204F1200109200BF095FA55FA80F5FD
:1017C0006DB2012108460AF05DFD206B09F0E2FBD5
:1017D000284670BDF803002010B584B0FFF7FCFE6A
:1017E0000446FFF7C3FF54FA80F0C4B20DF10F00B6
:1017F0000BF0CAF954FA80F4E4B204208DF80F001B
:101800000BF044FA54FA80F464B29DF90F3000935F
:10181000054B00221146022014F060FBFFF728FF61
:10182000204604B010BD00BF789F01082DE9F04F9D
:10183000A3B0814B00221146022014F04FFB18A9DF
:1018400008200BF039FA04461CA909200BF034FAE1
:1018500054FA80F0C3B211939DF8602012929DF863
:10186000611013919DF862309DF863209DF864101B
:101870009DF865009DF866409DF867509DF868608A
:101880009DF869709DF86AC09DF86BE09DF86C80CA
:101890009DF86D909DF86EA09DF86FB0CDF83CB0AE
:1018A000CDF838A0CDF83490CDF83080CDF82CE0CC
:1018B000CDF828C0099708960795069405900491DD
:1018C0000392029313990191129A00925B4B0022AA
:1018D0001146022014F002FB9DF8702012929DF830
:1018E000711013919DF872309DF873209DF874105B
:1018F0009DF875009DF876409DF877509DF87860CA
:101900009DF879709DF87AC09DF87BE09DF87C8009
:101910009DF87D909DF87EA09DF87FB0CDF83CB0FD
:10192000CDF838A0CDF83490CDF83080CDF82CE04B
:10193000CDF828C00997089607950694059004915C
:101940000392029313990191129A00923C4B002248
:101950001146022014F0C2FA14A80AF0ADFE119B41
:1019600053FA80F4E4B215A80BF0A2F854FA80F50B
:10197000EDB216A80BF070F855FA80F464B29DF839
:1019800057309DF856209DF855109DF8540003904F
:101990000291019200932B4B00221146022014F079
:1019A0009DFA9DF858309DF859209DF85A109DF8E1
:1019B0005B009DF85C509DF85D609DF85E709DF841
:1019C0005FC0CDF81CC00697059604950390029160
:1019D000019200931C4B00221146022014F07EFA63
:1019E0009DF884300BBB194B00221146022014F0E5
:1019F00075FA09F0D3FA0090154B00221146022027
:101A000014F06CFA9DF950300093124B00221146ED
:101A1000022014F063FA104B00221146022014F049
:101A20005DFA204623B0BDE8F08F0C4B0022114632
:101A3000022014F053FADCE78C9F0108C49F0108D0
:101A400028A001088CA00108B8A00108F8A001088E
:101A50001CA1010834A1010840A101080CA1010842
:101A600030B585B0574B00221146022014F036FAEB
:101A7000002513E054494FF4237303FB0511534B26
:101A8000C1F88032524BC1F88432212008F03AF973
:101A90000134E4B2202CEDD90135EDB2072D01D887
:101AA0000024F7E74B4B00221146022014F016FAEF
:101AB000494BE8221A70494A6B4692E8030083E8D2
:101AC0000300082246490DEB020000F029FCD8B9BA
:101AD000082269460DEB020015F039F848BB3E4B71
:101AE0001A784049404800F01BFC88B9FFF774FEA3
:101AF000C0B93E4B00221146022014F0EFF9FFF767
:101B000095FE002005B030BDFFF75CFD0120F9E730
:101B1000FFF758FD364B00221146022014F0DEF983
:101B20000120EFE7334B00221146022014F0D6F9D2
:101B3000DFE7314B00221146022014F0CFF90023D9
:101B40001AE0294903EB830201EB8202012082F8AB
:101B50003900002082F83A0082F838002748D06324
:101B60004FF0814010640020506403EB830201EBCE
:101B7000820188640133DBB2072BE2D900230DE038
:101B800003EB4301184A0A44012182F8D81082F875
:101B9000D910002182F8DA100133DBB2032BEFD920
:101BA000FFF7B4FD30B9164B00221146022014F0A5
:101BB00095F9A4E7134B00221146022014F08EF988
:101BC00001209FE780A10108E0040020840000209C
:101BD00000000020BCA10108F503002010A30108AB
:101BE00000FF030808FF0308F803002054A20108BF
:101BF000F8A1010824A2010878A201080000F0421F
:101C0000E8A20108B4A2010800B583B06B4683E8DE
:101C1000030093E8030013F059FC03B05DF804FBE4
:101C200000B583B0684613F073FC009803B05DF80C
:101C300004FB000010B5AAB0AF238DF8A73014281C
:101C400000F2EE80DFE810F0150020002B003300DA
:101C50006A007D008700EC00EC00EC00EC00EC007A
:101C6000EC00EC00EC00EC00AA00B200C200CA00DC
:101C7000DA00AB238DF83C30322000F075FF0121F3
:101C80000FA801F0F3FB47E04FF080730F930A2099
:101C900000F06AFF04210FA801F0E8FB3CE00A20F5
:101CA00000F062FF3821664801F0E0FB34E00A20D2
:101CB00000F05AFF01210DF1A70001F0D7FB3821F8
:101CC0005F4801F017FC142000F04EFF5D4A0FAB97
:101CD00092E8030083E80300082219465A4800F0FE
:101CE00003FB002840F0A380E8225549574800F044
:101CF000FBFA002840F09E800A2000F035FF012109
:101D00000DF1A70001F0B2FB0A2000F02DFFFFF754
:101D10002DFD002840F091802AB010BD03A907A82E
:101D200001F05CFDBDF80C20BDF81C3043EA024315
:101D30000F930A2000F018FF04210FA801F096FB72
:101D4000EAE700230F93FFF76BFF0F9004210FA822
:101D500001F08CFBE0E70A2000F006FF01210DF105
:101D6000A70001F083FB00240794042107A801F0D9
:101D7000C1FB079B0F93ADF840400FAB93E8030006
:101D8000FFF742FF0A2000F0EFFE01210DF1A7004E
:101D900001F06CFB0A2000F0E7FEBDE70A2000F02E
:101DA000E3FEA0212A4801F061FBB5E70A2000F01C
:101DB000DBFE01210DF1A70001F058FBA021244812
:101DC00001F098FB142000F0CFFE7FE70A2000F01E
:101DD000CBFE0C211F4801F049FB9DE70A2000F0D3
:101DE000C3FE01210DF1A70001F040FB0C211948B1
:101DF00001F080FB142000F0B7FE67E70A2000F036
:101E0000B3FE1FAB019317AB009303AB27AA07A93F
:101E10000FA801F0B5FF68210FA801F027FB7BE7B1
:101E20000D4B00221146022014F058F874E7FFF71A
:101E3000C9FB59E7FFF7C6FB5EE7FFF7C8FB6BE797
:101E4000F803002010A3010800FF030808FF03089F
:101E500030040020D00400201CA3010810B5047831
:101E60000A2000F081FE2046FFF7E4FE10BD0000CE
:101E700038B50C4640F60973984225D840F64263BF
:101E8000984218D9C0F570600A30FEF78FFF0F49ED
:101E9000FFF794F80146FEF7D5FE4FF07E51FEF7AE
:101EA000D1FE05462046FEF77DFF2946FEF7D2FF0C
:101EB000FFF7D2F938BD0846FEF774FF0449FEF774
:101EC000C9FFFFF7C9F9F5E70846F3E70000484303
:101ED0000000404008B51648164B03604FF08043A1
:101EE000436000238360C360036104224261037680
:101EF000012242768376C26180F820304362836299
:101F000080F82C304FF480510163072141638163D5
:101F100080F83C201C2202644FF480724264836487
:101F2000C36402F001F800B908BD00F083FBFBE7D1
:101F3000441900200024014000B589B00023039318
:101F400004930593069307930268124B9A4202D0BA
:101F500009B05DF804FB4FF0B0431A6E42F4007212
:101F60001A661A6E02F400720292029ADA6C42F059
:101F70000202DA64DB6C03F002030193019B42F27C
:101F8000020303930323049303A9034803F004F912
:101F9000DEE700BF002401400004004808B50268E5
:101FA000074B9A4200D008BD4FF0B042136E23F4A5
:101FB0000073136642F20201024803F0BFF9F2E730
:101FC000002401400004004800B583B04FF0B04346
:101FD0009A6C42F004029A649A6C02F00402019234
:101FE000019A9A6C42F001029A649B6C03F001031F
:101FF0000093009B002211460B2002F0F1FC0B2005
:1020000002F0FEFC002211460C2002F0E9FC0C203C
:1020100002F0F6FC002211460D2002F0E1FC0D203A
:1020200002F0EEFC03B05DF804FB30B108B539B145
:1020300092B213F0F9F9002008BD6FF00500704767
:102040006FF00500F8E7000008B502F07BFF78B9F3
:10205000094B9A6942F040429A614CF2FA321A6195
:1020600002F088FF08B9002008BD6FF00400FBE70C
:102070006FF00400F8E700BF0040005870B584B06E
:1020800000230393002839D00E460446FFF7DCFFF7
:10209000054610B1284604B070BD02F053FF80BB66
:1020A0000223009304F178431748D0F8E015174A4B
:1020B00002EA8121B3FBF1FC01FB1C33DB0A019333
:1020C000A11901F178410139D0F8E00502EA802236
:1020D000B1FBF2F002FB1011C3EBD12301330293E9
:1020E00003A9684603F018F818B1022804D06FF06D
:1020F000010502F03FFFCDE70125FAE76FF0050586
:10210000C8E76FF00405C5E70070FF1F00FCFF0380
:102110002DE9F04F8BB004461046049201940291D1
:1021200000220023CDE90823002C00F0BC80002908
:1021300000F0BD8010F0070F40F0BD8014F00703E1
:10214000059340F0BC80FFF77FFF039018B1039820
:102150000BB0BDE8F08F02F0F5FE002840F0B38030
:1021600004F178415A4BD3F8E0355A4A02EA832207
:10217000B1FBF2F302FB1311CB0A0693049BE318A5
:1021800003F17843013BB3FBF2F002FB1032D20AB9
:10219000A2EBD1220132012A0AD9C4F30A04C4F500
:1021A0000063DDF818B0CDF800B09B46079218E048
:1021B000049BF6E76FF003030393039B002B6BD1A3
:1021C000019B5B440193029B5B440293049BA3EB42
:1021D0000B0BBBF5006F28BF4FF4006B009B013366
:1021E0000093069B079A1344009A934254D9009B8C
:1021F00003F58034E402384B1868002849D04FF4C6
:1022000000622146FFF711FF334B1B68019AC2F3AE
:102210000A001FFA8BF20299184413F005F94FF4E3
:1022200000612046FFF72AFF002838D12A4BD3F857
:1022300000A002F087FE10B16FF004030393059D28
:10224000B5F5006FB9D205EB0A0355F80A6000270F
:10225000CDE908675968DDE90823904641EA03099A
:10226000CDE90889DDE908232146012002F0D0FEEE
:1022700000289FD120686168DDE90823994208BFE2
:10228000904202D108340835DAE76FF00303039374
:1022900093E76FF00503039302F06CFE57E76FF0CE
:1022A00001030393F8E76FF0050303934FE76FF023
:1022B000050303934BE76FF00503039347E76FF0C4
:1022C0000503039343E76FF0040303933FE700BF65
:1022D0000070FF1F00FCFF03A8190020014B1860CD
:1022E00000207047A8190020B0F1006F0ED310B580
:1022F000094BD3F8E045094B03EA842303F100635B
:10230000013B984205D8FFF703FF10BD4FF0FF30A7
:1023100070474FF0FF30F8E70070FF1F00FCFF032D
:10232000B1F1006F0ED310B5094BD3F8E045094B5E
:1023300003EA842303F10063013B994205D8FFF7C8
:1023400074FE10BD4FF0FF3070474FF0FF30F8E7DC
:102350000070FF1F00FCFF032DE9F0418AB000244C
:10236000059406940794089409944FF0B043DA6CEE
:1023700042F00102DA64DA6C02F001020492049A7B
:10238000DA6C42F00202DA64DA6C02F002020392C2
:10239000039ADA6C42F00402DA64DA6C02F00402A6
:1023A0000292029ADA6C42F08002DA64DB6C03F08B
:1023B00080030193019B414E224645F604013046BD
:1023C00003F041F822464FF4F0614FF0904003F0E3
:1023D0003AF8DFF8EC8022460721404603F033F854
:1023E00048F21303059303250695079405A94FF0BA
:1023F000904002F0D1FE48F2F84305930695079409
:1024000005A9304602F0C8FE44F6040305930127EF
:1024100006970794089405A9304602F0BDFE42F2E3
:10242000780305930695079405A9404602F0B4FE8B
:102430004FF4F063059306970794089405A94FF0AD
:10244000904002F0A9FE072305930697079408948D
:1024500005A9404602F0A0FE4FF48053059306976D
:1024600002270797089405A9304602F095FE4023FD
:1024700005934FF444130693079405A94FF0904039
:1024800002F08AFE202305930694079705A94FF0D2
:10249000904002F081FE082305930695079405A954
:1024A000084802F079FE22463946162002F098FAD2
:1024B000162002F0A5FA0AB0BDE8F0810004004839
:1024C00000080048001C004808B51248124B036081
:1024D000124B4360002383600122C26003614361A9
:1024E0008361C361036203F090F950B90021094888
:1024F00003F0B4FB40B90021064803F0DDFB30B91E
:1025000008BD00F097F8F1E700F094F8F3E700F069
:1025100091F8F5E7AC19002000580040885D801064
:1025200010B596B0044600211191129113911491A7
:102530001591382203A814F01AFB22681A4B9A420C
:1025400001D016B010BD802303934FF440230993AC
:1025500003A804F0EBF918BB4FF0B044E36C43F070
:102560000103E364E36C03F001030293029B4FF465
:10257000C053119312231293002313931493042333
:10258000159311A94FF0904002F006FEA36D43F49D
:102590008003A365A36D03F480030193019BD0E73F
:1025A00000F048F8D8E700BF0058004008B50268BE
:1025B0000B4B9A4200D008BD4FF0B042936D23F40C
:1025C000800393654FF480514FF0904002F0B6FEC7
:1025D0004FF400614FF0904002F0B0FEEBE700BF17
:1025E0000058004008B5114B00221146022013F09C
:1025F00075FC00214FF4007001F0AEF907F019FAF4
:1026000007F0CCFC0021022001F0A6F900210120F6
:1026100001F0A2F9064803F05CF900F0BBFC00F001
:10262000C5FC0021102001F097F908BD38A301086E
:10263000AC19002072B6FEE710B59AB0482200210E
:1026400008A814F094FA00240294039404940594C6
:102650000694079403F05CFB4FF0B042D2F8903040
:1026600023F01803C2F8903002F58062136823F457
:10267000C06343F400731360136803F4C0630193F1
:10268000019B2423089381230B930123109311941E
:10269000B0231293139408A803F0D4FC70B94F230D
:1026A0000293002303930493059306930793022157
:1026B00002A803F0F9FF18B91AB010BDFFF7BAFF6E
:1026C000FFF7B8FF00B5A9B001F0E0FBFFF7B4FFDA
:1026D000FFF742FEFFF778FC08F04CF9FFF7F4FE35
:1026E00000F0D2FA00F02CFB01F0FCF8FFF7B8F98B
:1026F0000024ADF89E40ADF89C40012227A90DF1C1
:102700009E0001F0EBF9FFF76DFF08211FA801F013
:1027100015FB082117A801F011FB0FAD0821284671
:1027200001F00CFB07AE0821304601F007FB104B0F
:1027300022462146022013F0D1FB0196009503ABFF
:1027400005AA17A91FA801F01BFB03A905A801F002
:102750003BFA0823009333462A4617A91FA801F025
:1027600057FAFFF73FFF01F0E7F808F009F9FCE737
:102770006CA3010800B58DB02C22002101A814F033
:10278000F6F91948194B03601F2383600023036186
:10279000436183614FF08042C26103624FF48073F2
:1027A000436204F0A9FAA8B90F4804F0F3FBA0B9FA
:1027B00000220892029206924FF0005307934FF4C2
:1027C00080730B9301A9084804F008FB40B90DB0D1
:1027D0005DF804FBFFF72EFFE6E7FFF72BFFE7E7C7
:1027E000FFF728FFF3E700BF001A00200028004091
:1027F00010B590B004463822002102A814F0B7F9B1
:1028000022681A4B9A4201D010B010BD4FF48033A9
:1028100002934FF480730F9302A804F087F808BB6B
:102820004FF0B043D3F8902042F40042C3F8902018
:102830009A6D42F480629A659B6D03F48063019304
:10284000019B00221146022002F0CAF8022002F089
:10285000D7F8002202212A2002F0C2F82A2002F032
:10286000CFF8D1E7FFF7E6FEDAE700BF0028004027
:102870007047704708B501F01FFB0120024BC3F8F9
:10288000880003F0A9FA08BD0004005808B501F05B
:102890001AFB08BD08B501F016FB00F0F3FD08BDFA
:1028A00008B501F009FB0121002003F039FA08BD49
:1028B0007047FEE7FEE7FEE7FEE7FEE7704770477A
:1028C0007047704708B5024804F090FB08BD00BF90
:1028D000001A002008B5024802F096FA08BD00BFB1
:1028E000C41B002008B5024802F08EFA08BD00BFE4
:1028F000AC1A002008B5024802F086FA08BD00BFF5
:102900004C1A002008B5402002F0A2FD08BD0000CE
:1029100008B5024805F057F808BD00BF0C1B0020A1
:1029200008B5024805F0B0FD08BD00BF241C00201A
:1029300008B5024804F05AF908BD00BF001A00208B
:1029400008B5024804F006FE08BD00BF381A002092
:1029500008B505480823036004F07EFB00B908BDF4
:10296000FFF768FEFBE700BF381A002000B583B010
:102970004FF0B0435A6E42F001025A665B6E03F0AC
:1029800001030193019B00221146322002F028F836
:10299000322002F035F803B05DF804FB0CB400B54A
:1029A00083B004AB53F8042B019312F087FE03B0FD
:1029B0005DF804EB02B0704730B585B004460D46B3
:1029C00002A812F0A5FDBDF90C300093029B054A48
:1029D00010212046FFF7E2FF2046FDF721FC28806A
:1029E00005B030BD98A3010810B54FF0B042936810
:1029F00023F40043936013F027F801240D4B1C705F
:102A000000F0BBF813F0EEF90B4813F00DFA0B4B86
:102A10004FF400421A61032013F00CFA00F05EFE3E
:102A200000F0D0F812F0A6FC2146204612F0C2FCBD
:102A300010BD00BF441A0020B9290008004000580A
:102A400008B512F0CDFC08BD08B500F04FFE40F609
:102A5000B83398420DD8B0F5E16F0CD3A0F5E16022
:102A6000C0EBC0104000054BA3FB0030C0F3C71003
:102A700000E0FE2008BD0020FCE700BFB5814E1B32
:102A800000B587B0684600F081F80198FEF7BEFBFC
:102A900000B207B05DF804FB38B50446184BD3F814
:102AA0008035B3F1FF3F13D0C3711A0A82711A0C3B
:102AB00042711B0E0371124BD3F88425C270D3F8F8
:102AC00084351A0A82701A0C42701B0E037038BDCE
:102AD00001F000FA054601F009FA054401F000FA98
:102AE0002B0EE3712B0CA3712B0A63712571030E5E
:102AF000E370030CA370030A63702070E7E700BF64
:102B00000070FF1F38B50A4BD3F880350360B3F16E
:102B1000FF3F00D038BD044601F0DCF9054601F066
:102B2000DFF9454001F0E2F945402560F2E700BFDA
:102B30000070FF1F08B50121022012F025FC08BD1E
:102B400008B50021022012F01FFC08BD00207047CC
:102B500008B5044B1B780BB9002008BD00F05CFAE7
:102B6000FBE700BF441A002000B583B00190019834
:102B700000F038FB03B05DF804FB08B501F0BCF9C8
:102B800001F0C2F901F0C8F908BD000010B5044613
:102B900000F0CEFD40F30F20FEF708F9054BA360CF
:102BA0006060054B2360054BE360054B236100200B
:102BB00010BD00BF0000484200007A440D093E00ED
:102BC000AB030500002070470120704708B514F0E2
:102BD00021F8162303604FF0FF3008BD08B54FF011
:102BE000FF31FFF7F3FFFEE770B50C4616460025F0
:102BF00006E0AFF30080214601F8010B01350C46D9
:102C0000B542F6DB304670BD70B50C461646002561
:102C100004E014F8010BAFF300800135B542F8DB96
:102C2000304670BD4FF0FF3070474FF400534B609B
:102C300000207047012070470020704710B5034600
:102C40000C4A0D490D48006840B10C480068034427
:102C5000521A934206D8094A136010BD0748084C1F
:102C60000460F2E713F0D6FF0C2303604FF0FF304F
:102C7000F3E700BF0000012000040000481A002014
:102C8000204900207047000030B585B00023009334
:102C90000193029303932448244A026043608360B3
:102CA0004FF6FF72C26003614361836104F0B4FFB9
:102CB00000282FD11C4804F0DFFF00282DD10A2363
:102CC0000093012301930022029203926946164861
:102CD00005F034F820BB03F01DF90446144B1860CE
:102CE000114B5868134B188080B20130FEF75EF824
:102CF00005462046FEF756F801462846FEF75EF9DF
:102D00000D49FEF7A7F80C49FEF7A4F80B4B186025
:102D100005B030BDFFF78EFCCCE7FFF78BFCCEE7AC
:102D2000FFF788FCD7E700BF581B00200044014094
:102D3000B81B0020B41B002000007A44B01B002008
:102D400030B585B000230093019302930393244888
:102D5000244A02608F22426083604FF6FF72C26095
:102D600003614361836104F057FF00282ED11C48A2
:102D700004F082FF00282CD100220092012301934D
:102D8000029203926946164804F0D8FF20BB03F074
:102D9000C1F80446144B1860114B5868134B188047
:102DA00080B20130FEF702F805462046FDF7FAFF33
:102DB00001462846FEF702F90D49FEF74BF80C498B
:102DC000FEF748F80B4B186005B030BDFFF732FC3A
:102DD000CDE7FFF72FFCCFE7FFF72CFCD7E700BFCD
:102DE0000C1B002000480140AC1B0020A81B002049
:102DF00000007A44A41B002030B58BB004460023A9
:102E0000059306930793089309930368414A9342F5
:102E100004D0414A93423AD00BB030BD4FF0B0439A
:102E20001A6E42F400321A661A6E02F400320292EE
:102E3000029ADA6C42F00202DA64DB6C03F00203FD
:102E40000193019B4FF480750595022306930E2391
:102E5000099305A9314802F09FF93148314B0360CD
:102E60002323436000238360C360802202614561A5
:102E70004FF480628261C361036201F039FE18B9C8
:102E8000274B63629C62C7E7FFF7D4FBF8E74FF07C
:102E9000B0431A6E42F480221A661A6E02F480223F
:102EA0000492049ADA6C42F00202DA64DB6C03F0FA
:102EB00002030393039B4FF40073059302230693CD
:102EC0000E23099305A9154802F066F91648174B19
:102ED00003602523436000238360C3608022026176
:102EE0004FF4807242614FF480628261C361036279
:102EF00001F0FEFD58B90C4B63629C620022012177
:102F00001D2001F06DFD1D2001F07AFD84E7FFF723
:102F100091FBF0E7004401400048014000040048F4
:102F2000AC1A00201C0002404C1A00203000024065
:102F300010B504460368144A934203D0134A9342DF
:102F40000FD010BD4FF0B042136E23F40033136660
:102F50004FF480710E4802F0F1F9606A01F038FE1A
:102F6000EFE74FF0B042136E23F4802313664FF463
:102F70000071074802F0E2F9606A01F029FE1D20A5
:102F800001F042FDDDE700BF004401400048014080
:102F90000004004808B5044804F047FC00B108BD2F
:102FA000014804F078FCFAE7581B002008B50448F3
:102FB00004F03BFC00B108BD014804F06CFCFAE7EA
:102FC0000C1B0020064B986801E0054B9868044BE9
:102FD0009B688342F9D1C043024B1860704700BF21
:102FE00000280040BC1B0020014B1868704700BF40
:102FF000BC1B0020064B986801E0054B9868044B09
:103000009B688342F9D1C043024B1B68C01A7047CA
:1030100000280040BC1B0020074B1B7853B1074B16
:10302000986801E0054B9868044B9B688342F9D18E
:10303000C043704700207047C01B0020002800409C
:103040000320704708B501464FF47A7200238002CE
:10305000890DFEF721F908BDC20E43011B1A62F16A
:103060000002920042EA93729B001B1842F100009A
:10307000C00040EA5370C3F3D51343EA8050704751
:1030800010B5074B0122DA65064C4FF480712046DB
:1030900003F06CFD4FF0FF332363002010BD00BF31
:1030A00000280040001A002008B50246022102480C
:1030B00003F0B1FF08BD00BF001A002038B50F4B68
:1030C0001B780BB1002038BD0D4C4FF0FF35256348
:1030D000FFF750FBFFF7D4FF4FF48071204603F059
:1030E00045FD2563204603F035FF0020FFF7DCFF98
:1030F000FFF768FF014B01221A70E3E7C01B0020B5
:10310000001A002008B502460021024803F083FFA0
:1031100008BD00BF001A002008B502460121024880
:1031200003F079FF08BD00BF001A002010B58CB075
:1031300004462C22002101A813F019FDFFF7A0FF7F
:103140000C4B1B681C4400230893E4430294069331
:103150004FF0005307934FF480730B93012201A9A2
:10316000054803F03BFE10B900200CB010BDFFF77E
:1031700061FAF9E7BC1B0020001A002008B5022103
:10318000014803F04FFF08BD001A002038B505467E
:103190000B4B9C6801E00A4B9C68094A9268A2426A
:1031A000F9D1E443FFF7EAFF2346A40A44EA805436
:1031B000C3F30900FFF750FF2880204638BD00BF49
:1031C0000028004008B50021014803F02BFF08BD8E
:1031D000001A002008B50121014803F023FF08BDB3
:1031E000001A002008B5FFF72DFF0C4B996801E08D
:1031F0000A4B9968094B9B688B42F9D109E0074B50
:103200009B68064A92689A42F9D1CB1A984203D930
:1032100000BF024B9B68F4E708BD00BF00280040D8
:1032200008B512F035FD08BD08B5FFF7A7FF01305E
:10323000FFF73AFF08BD000008B51848184B0360B7
:103240004FF4E133436000238360C36003610C22C9
:10325000426183610362436283624FF000534366BD
:1032600006F0E8F870B900210C4806F098FA60B949
:1032700000210A4806F0B8FA50B9084806F06BFA7F
:1032800048B908BDFFF7D6F9EDE7FFF7D3F9EFE747
:10329000FFF7D0F9F1E7FFF7CDF9F2E7241C0020A2
:1032A0000080004030B597B0044600211191129182
:1032B000139114911591382203A813F058FC226839
:1032C000284B9A4201D017B030BD2023039303A8A6
:1032D00003F02CFB00283ED14FF0B043DA6D42F0F2
:1032E0000102DA65DA6D02F001020292029ADA6CEA
:1032F00042F00102DA64DB6C03F001030193019BED
:103300000C2311930223129300251395149508237F
:10331000159311A94FF0904001F03EFF1248134B56
:1033200003601623436010238360C560802303611C
:1033300045618561C561056201F0DAFB70B90A4B30
:10334000E3679C6200220221262001F049FB26202F
:1033500001F056FBB7E7FFF76DF9BDE7FFF76AF934
:10336000EDE700BF00800040C41B002008000240C1
:1033700002680C4B9A4200D0704710B504464FF0DB
:10338000B042D36D23F00103D3650C214FF0904080
:1033900001F0D4FFE06F01F01BFC262001F034FBAC
:1033A00010BD00BF0080004008B5074B1860FEF755
:1033B0000BFEFFF741FF054AD2F8803043F08053FF
:1033C000C2F88030002008BDBC1C00200008005856
:1033D00008B54FF0B043DA6B42F00102DA63DA6B02
:1033E00022F00102DA630448FFF7C2FF0F2001F068
:1033F0000BFB002008BD00BF241C002008B50A46B6
:103400000146024804F00EFF002008BD241C0020E5
:1034100010B582B0124B18604FF40013009302AB4A
:1034200013E906000F4806F03EF90E4B1B68DA69F7
:1034300012F4803FF9D1DA6912F4800FFBD09A6858
:1034400042F480029A60074C204606F06DF9012292
:103450000549204606F0C0F8002002B010BD00BFAC
:10346000B81C0020241C0020C01C002008B50A46FF
:103470004FF47A730146024805F072FE08BD00BFA2
:10348000241C002008B5044801F032FB00B908BD37
:10349000FFF7D0F8FBE700BFC41B002008B50268A7
:1034A000044B9A4200D008BD034B1B68002098478C
:1034B000F9E700BF00800040BC1C002002680A4BF6
:1034C0009A4200D0704710B50446084B1B682BB1D8
:1034D000D0F8902012B901210548984701220449EB
:1034E000204606F079F810BD00800040B81C00208E
:1034F000C01C002008B50A464FF47A730146024802
:1035000005F09FFE08BD00BF241C00200D48854625
:10351000FFF7B8FB0C480D490D4A002302E0D458D0
:10352000C4500433C4188C42F9D30A4A0A4C00230D
:1035300001E013600432A242FBD313F071FBFFF7EA
:10354000C1F8FEE70000012000000020D8030020A1
:1035500048BA0108D803002020490020FEE70000F7
:103560002DE9F84306460C46914698461E4800F061
:10357000B1F81E4BB3F8AA704FF6FF739F420CD000
:1035800040F6E44303FB07F7B7FBF0F7278098F812
:10359000000028B9002425460CE040F6E447F5E792
:1035A000FFF7E2FAF6E7484600F094F815FA80F5DE
:1035B0000134E4B298F80110A142F4D811B9012302
:1035C00088F8013098F80130B5FBF3F5ADB207FB90
:1035D00005F5074BA3FB0523ED1A03EB5503DB0AA7
:1035E0003380BDE8F88300BF002000B40075FF1FE2
:1035F000010110002DE9F04180460F4616460121D9
:103600004FF4007000F0A8F90120FFF7ADFA002494
:103610000CE0204606F0FAF92B46114A06EB44016D
:1036200007EB4400FFF79CFF0134E4B2032C0BD8F6
:1036300004EB44054544AB78002BEAD1002327F87E
:10364000143026F81430EFE700214FF4007000F03A
:1036500083F9032006F0DAF906F0EBF9BDE8F08112
:103660002000001430B585B0044600230193029376
:103670000393FEF72FFC164801F08EF8F8B9019479
:1036800000230293039301A9114800F0C7FDC8B9B4
:103690000F4800F085FFC0B90D4C4FF0FF312046B8
:1036A00000F05AFD204601F057F8204600F0B3FD27
:1036B0000546204600F0F0FF284605B030BDFEF775
:1036C000B9FFDCE7FEF7B6FFE2E7FEF7B3FFE3E79B
:1036D0004419002008B5FFF7C5FF08BD014B024A99
:1036E0001A607047441900200024014008B50D48B5
:1036F000FFF7B8FFA0B103460B4AB2F8AA004FF695
:10370000FF72904207D040F6E44202FB00F0B0FBAB
:10371000F3F080B205E00548B0FBF3F080B200E0C2
:10372000002008BD002000B40075FF1FD8084C0021
:1037300010B582B00023ADF80630FFF7D7FF04467E
:103740002148FFF78FFF214BB3F8C820B3F8A8102A
:103750008A421DD000FB04F39B081D48A0FB030315
:10376000C1EB5313642000FB03F3521A93FBF2F3F3
:103770001E331BB2ADF80630BDF806301BB21B027B
:103780001BB2ADF80630BDF8060000B202B010BDA5
:1037900004FB00F00F4BA3FB0023C41A03EB5403FC
:1037A000DB0A4FF47A7202FB03F3A3F53923A3F586
:1037B0000C63094A82FB0312DB17C3EBA2231E33FF
:1037C0001BB2ADF80630D7E7001000B00075FF1F40
:1037D0009F00EE0901011000AD8BDB682DE9F84375
:1037E00080460F462948FFF775FF294BB3F8AA908A
:1037F0004FF6FF73994545D040F6E44303FB09F9C2
:10380000B9FBF0F90121102000F0A6F81420FFF711
:10381000ABF90120FFF75EFF80B209FB00F01D4C01
:10382000A4FB0035401B05EB5005C5F3CF25002157
:10383000102000F091F8184ED6F8083723F0E07306
:1038400043F08073C6F808370120FFF78DF913485D
:10385000FFF740FF80B209FB00F0A4FB0034001B1F
:1038600004EB5004C4F3CF24D6F8083723F0E073F8
:10387000C6F808376D00A8F8005004EB44043C80FB
:10388000BDE8F88340F6E449BCE700BF002000B47F
:103890000075FF1F0101100000200140004000B82A
:1038A00000B587B00023019302930393049305931B
:1038B00001910323029301A901F06EFC07B05DF8AA
:1038C00004FB00B587B00023019302930393049394
:1038D000059301910123029301A901F05DFC07B05A
:1038E0005DF804FB10B582B04FF0B043DA6C42F0E3
:1038F0000202DA64DB6C03F002030193019B074CC4
:103900004FF400612046FFF7DCFF01224FF4006115
:10391000204601F098FD02B010BD00BF0004004831
:1039200008B54FF40061034801F086FD012800D07E
:10393000002008BD0004004810B5064C00224FF4DA
:103940000061204601F07FFD4FF400612046FFF743
:10395000A7FF10BD0004004870B504460D460129BC
:1039600014BF0026012610F0010F24D114F0020F1D
:1039700035D114F0040F49D114F0080F5AD114F0C6
:10398000100F5FD114F0200F70D114F0400F73D1DD
:1039900014F0800F76D114F4807F40F0878014F407
:1039A000007F40F08B80012D00F08E80042149487B
:1039B000FFF776FF70BD32464FF48041454801F075
:1039C00042FD012D05D04FF480414248FFF768FFCA
:1039D000CCE74FF480413F48FFF773FFC6E732461C
:1039E0004FF480614FF0904001F02DFD012D06D085
:1039F0004FF480614FF09040FFF752FFB9E74FF46A
:103A000080614FF09040FFF75CFFB2E732464FF421
:103A10000051304801F017FD012D05D04FF4005141
:103A20002C48FFF73DFFA7E74FF400512948FFF767
:103A300048FFA1E732464FF400714FF0904001F08B
:103A400002FD9CE732464FF48051224801F0FBFC16
:103A5000012D05D04FF480511E48FFF721FF91E75B
:103A60004FF480511B48FFF72CFF8BE732460221B1
:103A7000194801F0E8FC88E732460121164801F0B8
:103A8000E2FC85E732464FF40061124801F0DBFCAE
:103A9000012D05D04FF400610E48FFF701FF7AE7D2
:103AA0004FF400610B48FFF70CFF74E732464FF408
:103AB00080714FF0904001F0C6FC70E7324604215F
:103AC000044801F0C0FC6EE704210248FFF7F9FE4C
:103AD00070E700BF000400480008004870B584B0DB
:103AE00005460C4616460DF10E0103A8FFF776FEBB
:103AF0003EB9BDF80C302B80BDF80E30238004B0E9
:103B000070BD154B00221146022012F0E7F9052086
:103B1000FFF72AF8BDF80C300093104B0022114635
:103B2000022012F0DBF90520FFF71EF8BDF80E3079
:103B300000930B4B00221146022012F0CFF9052012
:103B4000FFF712F8074B00221146022012F0C6F9C7
:103B50006420FFF709F8CCE7A4A30108E0A301085B
:103B600000A401081CA4010838B50C4615460849F4
:103B7000FDF770F9FDF770FB2368E8542368013303
:103B80002360C0F30720E85423680133236038BD65
:103B90000000C84238B50C461546FCF79BFC0022D5
:103BA000084BFCF701FDFCF7D7FF2368E8542368B6
:103BB00001332360C0F30720E854236801332360F6
:103BC00038BD00BF0000244070B584B006460D46E5
:103BD00000240EE036F8143035F8142002920193D8
:103BE0000094094B00221146022012F077F90134AB
:103BF000E4B2032CEED9054B00221146022012F04C
:103C00006DF904B070BD00BF30A4010868A40108BC
:103C10002DE9F04FA5B082468946089209939DF898
:103C2000B8B000242BE05AF8246059F82470089B9F
:103C300053F824800BAD099B53F82400FCF75CFC7F
:103C4000CDE906014046FCF757FCCDE904013846B2
:103C5000FCF752FCCDE902013046FCF74DFCCDE902
:103C6000000122460849284612F00CFF0095074B38
:103C700000221146022012F031F90134E4B25C4511
:103C8000D1D325B0BDE8F08F88A40108DCA40108D9
:103C90002DE9F04F85B00290039192461F46DDF862
:103CA0003890DDF83C80002407E06B6849F8243048
:103CB000AB6848F824300134A4B2544538D204EB40
:103CC000840307EB830517F82330002BEDD003990D
:103CD000029B53F82400FCF7B3FF06461649E86838
:103CE000FDF7B8F8009014492869FDF7B3F8019082
:103CF000D5F804B000993046FDF7ACF84FF07E518E
:103D0000FCF7A0FF01465846FDF7A4F849F8240047
:103D1000AD6801993046FDF79DF84FF07E51FCF7F4
:103D200091FF01462846FDF795F848F82400C2E7C0
:103D300005B0BDE8F08F00BFBD378635002303E036
:103D4000002240F8232001338B42F9D370472DE93C
:103D5000F04180460D4617461E4600240BE006EB58
:103D6000840257F824104FF4237000FB048006F0FF
:103D700093F80134E4B2AC42F1D3BDE8F081000025
:103D80002DE9F04F9BB007468A4690469946259DFF
:103D9000FFF7C6FD0646012828D1DFF8DCB0002475
:103DA0000094249B52463946584606F079FB12ABE4
:103DB0003A4608213148FFF7CAFF02AF08213846CA
:103DC000FFF7BCFF0DF1280A08215046FFF7B6FFA8
:103DD00008212846FFF7B2FFCDF804A000975B4604
:103DE000082227492498FFF753FF31E0FFF77AFDB7
:103DF0000026D2E71AAB03EB840A5AF8600C01469E
:103E0000FCF720FF07465AF8200CFCF775FB18A3B7
:103E1000D3E90023FCF7C8FB00221A4BFCF7EEFCA9
:103E200014F06AFFFCF7B8FE01463846FDF712F8B9
:103E3000074645F824005AF8400C0146FCF702FFFB
:103E400001463846FCF7FCFE45F824000134E4B294
:103E5000072CCFD94A4641460B48FFF7CBFB012E32
:103E600002D11BB0BDE8F08FFFF766FDF9E700BF98
:103E7000182D4454FB21094030040020E0040020A8
:103E80000000C84100806640D004002010B5032027
:103E900000F094FD02F0C6F8064B18600F20FEF704
:103EA00055FE10B10124204610BD0446FEF700FD6A
:103EB000F9E700BF080100204FF0E022136923F06A
:103EC0000203136170474FF0E022136943F00203CD
:103ED00013617047014BD3F8900570470070FF1FC6
:103EE000014BD3F8940570470070FF1F014BD3F8C6
:103EF000980570470070FF1F024A536823F00103C2
:103F000053607047002004E0024A536823F0020324
:103F100053607047002004E0024A536823F0040312
:103F200053607047002004E030B583B00023019354
:103F3000002800F004810446836DBBB122689368B9
:103F400013F0805F1FD1936823F0104323F0170311
:103F500043F0805393607B4B1B689B097A4AA2FB1A
:103F600003239B0901335B00019309E0FDF7E4FFA4
:103F70000023E36584F85430E0E7019B013B0193A3
:103F8000019B002BF9D12268936813F0805F40F009
:103F90009880A36D43F01003A365E36D43F0010324
:103FA000E3650120936813F0040300D00123A16DA1
:103FB00011F0100F40F0BC80002B40F0B980A36DD1
:103FC00023F4817343F00203A365936813F0010F98
:103FD0004DD1A368217E43EA8133617E43EAC13338
:103FE000A57E43EA4533216B09B14FF480510B4361
:103FF000E1680B432169002965DB4FF400110B4395
:1040000094F82C1043EA410394F8201001295DD064
:10401000616A21B101F4E071A56A29430B43D568B7
:104020004A4929401943D160636803F04043E26C78
:104030001A4394F83C10012955D021680D69444B6E
:104040002B4013430B616368B3F1404F0FD0B3F1C2
:10405000804F0CD0B3F1004F09D03E49D1F808276A
:1040600022F4701203F470131343C1F80837216867
:10407000636B4A6922F0070213434B612268A16B0C
:10408000536923F0700343EA011353612369002B42
:1040900033D12268936A63F00F03936223685B69EC
:1040A00003F00703626B9A4239D0A36D23F0120329
:1040B00043F01003A365E36D43F00103E3650120C2
:1040C0003BE000206EE721F0004198E715B943F48A
:1040D00080339DE7A16D41F02001A165E16D41F0C4
:1040E0000101E16594E7216C0B43616C0B43A16C0A
:1040F0000B431A4342F001029FE7B3F5001FCDD1F5
:1041000021688B6AE369013B9B0003F01C036FF09D
:104110000F0202FA03F3226E13438B62BEE7002301
:10412000E365A36D23F0030343F00103A36504E0FB
:10413000A36D43F01003A365012003B030BD01203F
:10414000FBE700BF08010020632D3E050102DEFFF2
:1041500002FCFF1F00200140F8B504460D464669E9
:10416000082E05D00368DB6813F0010F1ED104266A
:10417000FEF7EEFC074623681A6832421CD1B5F1FF
:10418000FF3FF8D0FEF7E4FCC31BAB4201D8002D83
:10419000F1D123681B683342EDD1A36D43F00403D2
:1041A000A365002384F85430032028E0836D43F096
:1041B00020038365012022E0A26D42F40072A26513
:1041C000DA6812F4406F15D1A27E9AB91A6812F01B
:1041D000080F0FD09A6812F0040F11D15A6822F01C
:1041E0000C025A60A36D23F4807323F0010343F0A3
:1041F0000103A365207E60B923680C221A60F8BD14
:10420000A36D43F02003A365E36D43F00103E36571
:10421000F0E70020F3E70368186C704770B483B0D0
:1042200000220192046990F85420012A00F00381D1
:104230000346012280F854200268906810F0040FB1
:104240000AD09A6D42F020029A650120002283F87C
:10425000542003B070BC70474868022800F09C806E
:10426000B4F1004F27D0754DAC4224D01C6E00F045
:104270001F000F25854024EA05050C68C4F31106CC
:10428000002E31D1C4F3846484402C431C664C68F6
:10429000A0080130DD69A84213D80D68906A04F0C7
:1042A0001F040F26A64020EA0600C5F38365A5403B
:1042B0002843906205E00C68906AC4F3110420431F
:1042C00090621C680D688A68606920EA052002EA2D
:1042D000052222F07C4222F0FF02024362610A685A
:1042E000002A09DB0020B1E794FAA4F414B1B4FA6F
:1042F00084F4C9E72024C7E75149D1F8080700F042
:10430000E071504CA24207D04F4CA24226D04F4CF5
:10431000A24232D0002099E710F4000FF4D141F40A
:1043200000014748D0F8082722F0E0721143C0F896
:104330000817474A126892094649A1FB02129209DE
:10434000013202EB42029200019202E0019A013A2C
:104350000192019A002AF9D1002077E710F0807FBE
:10436000D5D141F080713648D0F8082722F0E072AC
:104370001143C0F80817002068E710F4800F58D1E7
:1043800041F480022E48D0F8081721F0E0710A436A
:10439000C0F80827002059E7B4F1004F02D02748A1
:1043A000844206D10C68906AC4F3110420EA040028
:1043B00090620A68002A01DB002047E72049D1F813
:1043C00008172048824207D01F48824213D01F4856
:1043D00082421FD0002039E701F0A07100F11040A7
:1043E00000F58830D0F8082722F0E0721143C0F8B9
:1043F000081700202AE701F4400200F1084000F508
:104400006040D0F8081721F0E0710A43C0F808278F
:1044100000201BE701F0C07200F10C4000F5803075
:10442000D0F8081721F0E0710A43C0F808270020EF
:104430000CE700200AE702200BE700BF0400008021
:1044400000200140001000B0004000B8002000B47F
:1044500008010020632D3E0538B503689A6812F004
:10446000040F2AD004469A6812F0020F07D19A6806
:1044700022F0004222F0170242F010029A60FEF78A
:1044800067FB054623689B6813F0040F13D0FEF703
:104490005FFB431B022BF5D923689B6813F0040FC5
:1044A000F0D0A36D43F01003A365E36D43F0010367
:1044B000E365012002E0002000E0002038BD00009C
:1044C00030B583B00023019303689A6812F0010F9E
:1044D0005BD1044699682E4A114217D19A6822F09E
:1044E000004222F0170242F001029A60294BD3F8F1
:1044F000083713F4000F19D0274B1B689B09274A74
:10450000A2FB03239B09013301930CE0836D43F06D
:1045100010038365C36D43F00103C365012035E0DB
:10452000019B013B0193019B002BF9D1637E012B81
:1045300001D100202AE0FEF70BFB054623681A682C
:1045400012F0010F1FD19A6812F0010F07D19A687B
:1045500022F0004222F0170242F001029A60FEF7B8
:10456000F7FA401B0228E9D923681B6813F0010FF2
:10457000E4D1A36D43F01003A365E36D43F00103A1
:10458000E365012002E0002000E0002003B030BD20
:10459000170000800020014008010020632D3E0527
:1045A00003689B6813F0040F28D110B5044690F8F7
:1045B0005430012B24D0012380F85430FFF780FFC2
:1045C000C0B9A36D23F4706323F0010343F4807337
:1045D000A3650023E36522681C21116084F8543030
:1045E0002268936823F0004323F0170343F0040389
:1045F000936010BD002384F85430FAE7022070471E
:104600000220F6E738B504460268936813F0020307
:1046100000D00123916811F0010F39D0002B39D15E
:10462000936803F00503012B09D0A36D43F0100339
:10463000A365E36D43F00103E365012029E093687E
:1046400023F0004323F0170343F002039360236831
:1046500003221A60FEF77CFA054623689B6813F074
:10466000010F13D0FEF774FA401B0228F5D9236816
:104670009B6813F0010FF0D0A36D43F01003A36506
:10468000E36D43F00103E365012002E0002000E058
:10469000002038BD0020FCE770B5002856D0044645
:1046A000836D43F002038365FFF7D6FE06460028BC
:1046B0003DD02268536823F4677323F003035360EB
:1046C000236840F29F321A602268D168204B0B4069
:1046D000D3602268536923F00703536123689A6A01
:1046E00000259D622268136A03F0F023136222689A
:1046F000536A03F0F02353622268D36A03F0F02375
:10470000D3622268136923F040431361114AD2F83F
:10471000083723F0FE73C2F808372046FDF73EFC49
:104720002566E565A56584F85450304670BD204681
:10473000FFF768FF064608B90123A365226893685E
:1047400023F0104323F017039360B2E70126ECE750
:1047500000021E830020014090F85430012B19D034
:1047600010B50446012380F85430FFF775FE18B1E8
:10477000002384F8543010BD2046FFF743FF002883
:10478000F6D1A36D23F4807323F0010343F00103FA
:10479000A365EDE702207047F0B583B000230193D5
:1047A00090F85430012B00F0B0800446012380F8CB
:1047B0005430FFF727FF054623689A6812F001027C
:1047C00009D0A36D43F01003A365002384F854308F
:1047D000284603B0F0BDA16D21F4817141F00201C2
:1047E000A165DE6826F4FF4626F07C063604360C0A
:1047F000D96821F4004121F00301D960104605E099
:10480000D3F8B43003F07F0318440132072A1ED8CE
:1048100021688B6823F0004323F0170343F0004323
:104820008B60236899680029EADA019B01330193C0
:10483000019BB3F52E3FF4D3A36D23F0120343F095
:104840001003A365002384F854300125C0E7B0FBB2
:10485000F2F221688B6823F0004323F0170343F042
:1048600001038B6021680B69B3F1804F17D2284B8D
:10487000D3F8083703F47013B3F5E01F0FD39B0C84
:10488000033B012000FA03F30093009BC340009315
:1048900002E0009B013B0093009B002BF9D1D1F873
:1048A000B43023F07F031A43C1F8B4202268936820
:1048B00023F0004323F0170343F002039360FEF755
:1048C00047F9074623689A6812F0010F09D1DA68A0
:1048D0003243DA60A36D23F0030343F00103A365C1
:1048E00073E7FEF735F9C31B022BEBD923689B68EE
:1048F00013F0010FE6D0A36D43F01003A365E36D41
:1049000043F00103E365012562E7022560E700BF8C
:1049100000200140002807DB00F01F0240090123AE
:104920009340024A42F82030704700BF00E100E0A7
:1049300000280CDB00F01F024009012393402030C7
:10494000034A42F82030BFF34F8FBFF36F8F704799
:1049500000E100E0002808DB0901C9B200F1604075
:1049600000F5614080F80013704700F00F00090166
:10497000C9B2014B1954704714ED00E000B500F0C6
:104980000700C0F1070CBCF1040F28BF4FF0040C66
:10499000031D062B0FD9C31E4FF0FF3E0EFA0CF07D
:1049A00021EA000199400EFA03FE22EA0E0241EAD2
:1049B00002005DF804FB0023EEE70000074AD3681D
:1049C00023F4E0631B041B0C000200F4E0600343CB
:1049D00043F0BF6343F40033D360704700ED00E061
:1049E00010B50446054BD868C0F30220FFF7C6FF98
:1049F00001462046FFF7AEFF10BD00BF00ED00E00E
:104A000008B5FFF787FF08BD08B5FFF791FF08BDA0
:104A100010B4C46CD0F850C0C4F804C0446D24B1C4
:104A2000846DD0F85CC0C4F804C0446C04F01C0C65
:104A3000012404FA0CF4D0F840C0CCF80440046817
:104A400063608368102B05D0036899600368DA609F
:104A500010BC704703689A600368D960F8E70000EB
:104A60000368144A934216D8426C22F0030202F102
:104A7000804202F502328264DBB2083B0E4AA2FB9E
:104A800003231B090D4AC26403F01F03012202FA2B
:104A900003F303657047426C22F00301084A0A449D
:104AA0008264DBB2083B044AA2FB03231B090733E1
:104AB000E8E700BF07040240CDCCCCCC8008024020
:104AC0001C080240436803F07F03074A1A4492001F
:104AD0004265064A8265013B03F00303012202FAA4
:104AE00003F3C365704700BF3F82001040090240D6
:104AF00000285ED010B5044603682F4A934240D880
:104B00002E4A1A442E49A1FB021212099200426455
:104B10002C4A0264022284F825201A686FF30E12D0
:104B20001A6021680A68A368E068034320690343A8
:104B300060690343A0690343E0690343206A0343B8
:104B400013430B602046FFF78BFFA368B3F5804F3C
:104B500022D06368A26C03F07F031360E36C226DC4
:104B60005A606368013B032B19D900236365A36571
:104B7000E3650020E063012384F8253084F82400F5
:104B800010BD114A1A440E49A1FB021212099200EB
:104B900042640E4A0264BDE700236360D9E7204601
:104BA000FFF790FF636D00221A60A36DE26D5A60FB
:104BB000DFE70120704700BF07040240F8FFFDBF98
:104BC000CDCCCCCC00000240F8FBFDBF000402407D
:104BD00000284BD038B504460268136823F001035F
:104BE00013600268224B9A422CD8224B134422496C
:104BF000A1FB03131B099B004364204B03640025A6
:104C00001560636C03F01C02216C012393404B6020
:104C10002046FFF725FFA36C1D60E36C226D5A60F0
:104C20006368013B032B18D900206065A065E0652F
:104C3000E06220636063A063E06384F8250084F889
:104C4000240038BD0E4B13440B49A1FB03131B0971
:104C50009B0043640B4B0364D1E72046FFF732FF10
:104C6000636D1D60A36DE26D5A60DDE70120704742
:104C700007040240F8FFFDBFCDCCCCCC00000240C1
:104C8000F8FBFDBF0004024038B5044690F824004C
:104C9000012843D0012084F8240094F82500C0B2F4
:104CA000012806D08023E363002384F82430012008
:104CB00038BD022084F825000020E06325682868BC
:104CC00020F0010028602046FFF7A2FE236BD3B13D
:104CD0002268136843F00E031360A36C1A6812F481
:104CE000803F03D01A6842F480721A60636D1BB172
:104CF0001A6842F480721A602268136843F0010354
:104D000013600020D4E72268136823F004031360C3
:104D10002268136843F00A031360DEE70220C7E746
:104D20000346002834D090F82520D2B2022A06D0BB
:104D30000422C263002280F8242001207047016809
:104D40000A6822F001020A6001680A6822F00E0275
:104D50000A60816C0A6822F480720A60426C02F078
:104D60001C01006C01228A404260DA6C196D5160AE
:104D70005A6D32B1116821F4807111609A6DD96D4C
:104D80005160012283F82520002083F82400704719
:104D90000120704708B590F82530DBB2022B03D014
:104DA0000423C363012008BD0268136823F00103D4
:104DB00013600268136823F00E031360826C13689B
:104DC00023F480731360436C03F01C02016C012315
:104DD00093404B60C36C026D5A60436D33B11A68E7
:104DE00022F480721A60836DC26D5A60012380F8CC
:104DF0002530002380F82430836B13B198470020BE
:104E0000D1E70020CFE7000038B5036C19680468CB
:104E10002568436C03F01C0304229A400A4215D013
:104E200015F0040F12D0236813F0200F03D123686C
:104E300023F004032360436C03F01C02016C042381
:104E400093404B60036B03B1984738BD02229A40F0
:104E50000A4228D015F0020F25D0236813F0200F46
:104E600006D1236823F00A032360012380F825304C
:104E700002681C4B9A420ED9436C03F01C020223B9
:104E80009340194A5360002380F82430C36A002BF2
:104E9000DBD09847D9E7436C03F01C020223934010
:104EA000124A5360EFE7082202FA03F30B42CCD018
:104EB00015F0080FC9D0236823F00E032360436C5C
:104EC00003F01C03016C012202FA03F34B60C2637E
:104ED00080F82520002380F82430436B002BB4D0C9
:104EE0009847B2E780000240000402400000024000
:104EF00010B4054C616941F0010161610260BFF3CA
:104F00006F8F436010BC7047004000580C4A5369D3
:104F100043F480235361EFF3108C72B6402351F8B1
:104F2000042B40F8042B013B13F0FF03F7D1044B93
:104F30001B6913F4803FFAD18CF31088704700BFCF
:104F400000400058094B5B69002B01DB00207047D3
:104F5000064B074A9A6002F188329A605B69002B1F
:104F600001DB002070470120704700BF004000585F
:104F700023016745054B5A6942F000425A615B695B
:104F8000002B01DB012070470020704700400058D3
:104F900038B50546FDF7DCFD04461B4B1B6913F4D1
:104FA000803F06D0FDF7D4FD001BA842F5D30320B7
:104FB00038BD154B1B6913F0010F15D123F4705345
:104FC00023F005031B041B0C0BB10F4A1361ABB993
:104FD0000D4B1B6913F4802F14D0FDF7B9FD001B96
:104FE000A842F5D30320E3E7074A0121116123F426
:104FF000705323F005031B041B0CE5E7034A5360C1
:105000000120D5E70020D3E700400058C41C002051
:10501000F8B51F46154B1B78012B25D004460D46CD
:105020001646124B01221A7000225A604FF47A7011
:10503000FFF7AEFF70B9012C10D031462846FFF7BC
:1050400065FF4FF47A70FFF7A3FF094A536923EA1B
:1050500004035361054B00221A70F8BD32463B46EB
:105060002846FFF745FFECE70220F6E7C41C0020C6
:1050700000400058034A536943F4803343F004036B
:105080005361704700400058164B1B6813F4007FB3
:1050900010D0144B1A6822F400721A601A6842F495
:1050A00000621A601A6822F400621A601A6842F4F8
:1050B00000721A600B4B1B6813F4806F10D0094B01
:1050C0001A6822F480621A601A6842F480521A60E8
:1050D0001A6822F480521A601A6842F480621A60D8
:1050E000704700BF00400058034A536923F47E73A1
:1050F00023F002035361704700400058054A53698A
:1051000023F47E7343EAC00040F4803040F0020094
:105110005061704700400058F8B51E4B1B78012BBA
:1051200035D005460F461B4B01221A7000225A60EB
:105130004FF47A70FFF72CFF064618BB2B68042B40
:1051400013D04FF0FF333B606C686B68AA68134460
:10515000A34213D92046FFF7D1FF4FF47A70FFF72F
:1051600017FF064648B90134EFE7FFF783FF4FF416
:105170007A70FFF70DFF064602E03C60FFF7B4FFD0
:10518000FFF782FF034B00221A703046F8BD02265B
:10519000FBE700BFC41C002070B5002369E08568F0
:1051A0005E000324B44025EA0405CC68B4402C43D7
:1051B0008460456825EA0C054C68C4F300149C40E3
:1051C0002C43446066E0DD08083550F8254003F0C4
:1051D000070C4FEA8C0C4FF00F0E0EFA0CFE24EA6F
:1051E0000E0E0C6904FA0CF444EA0E0440F8254053
:1051F00067E0022400E0002404FA0EF42C430CF1D2
:10520000020C4B4D45F82C404A4C2568D44325EA06
:105210000206D1F804C01CF4801F01D042EA050642
:10522000444D2E606D6804EA0506D1F804C01CF4F4
:10523000001F01D042EA05063E4D6E60D5F8805051
:1052400004EA0506D1F804C01CF4803F01D042EA0C
:105250000506384DC5F88060D5F884502C404E685E
:1052600016F4003F01D042EA0504324AC2F88440F5
:1052700001330A6832FA03F458D04FF0010C0CFAEB
:1052800003FC1CEA0202F3D04C6804F00304013C66
:10529000012C84D94C6804F00304032C0CD0C4689E
:1052A0005D004FF0030C0CFA05FC24EA0C0C8C6832
:1052B000AC4044EA0C04C4604C6804F00304022CC3
:1052C00081D004684FEA430E4FF0030C0CFA0EFC39
:1052D00024EA0C0C4C6804F0030404FA0EF444EACB
:1052E0000C0404604C6814F4403FC1D04FEA930CA6
:1052F0000CF102050E4C54F8255003F0030E4FEA52
:105300008E0E072404FA0EF425EA0405B0F1904F3E
:105310003FF471AF084CA04206D004F58064A0426F
:105320003FF467AF072467E7012465E770BD00BF5E
:10533000000001400008005800040048002331FA32
:1053400003F271D0F0B52EE0022500E0002505FA49
:105350000CF5A54249D004685D004FF0030C0CFA2F
:1053600005FC44EA0C0404604FEAD30E0EF1080E6B
:1053700050F82E4003F00706B6000F25B54024EA8A
:10538000050440F82E40846824EA0C0484604468D4
:1053900024EA02024260C26822EA0C02C2600133BF
:1053A00031FA03F23FD001229A4012EA0107F6D007
:1053B0009E08B51C1D4C54F8254003F0030C4FEA21
:1053C0008C0C4FF0070E0EFA0CFE0EEA0404B0F13E
:1053D000904FBBD0164DA84205D005F58065A84278
:1053E000B2D00725B3E70125B1E7124CD4F88050BD
:1053F00025EA0705C4F88050D4F8845025EA07054B
:10540000C4F88450256825EA07052560656825EA03
:1054100007056560054D023655F8264024EA0E045E
:1054200045F8264097E7F0BD704700BF00000140F7
:1054300000040048000800580369194201D0012007
:105440007047002070470AB18161704781627047E0
:1054500008B5054BDB68034200D108BD024BD8609C
:1054600005F054FEF9E700BF0008005803689A6988
:1054700012F0020F01D000229A6203689A6912F0BA
:10548000010F03D19A6942F001029A61704710B48A
:10549000019CC1F3090141EA02411943214321F072
:1054A000004102685368640D04F4806444F07F7422
:1054B00044F4583444F47F7444F0030423EA0403AE
:1054C0000B43536010BC70472DE9F041044603685C
:1054D0009E6916F010067CD00D4690461022DA61C7
:1054E000002637462368986910F0200F30D17FBB23
:1054F000B5F1FF3FF6D0FDF72BFBA0EB0800A8426B
:1055000001D8002DEED121684B6803F4804394F854
:105510004220D2B2886910F4004F02D00BB9202A81
:105520000ED123689B6913F0200FDBD1FDF710FB30
:10553000A0EB08001928F4D946F020060127D1E78E
:105540004B6843F480434B60FDF702FB8046E8E77D
:105550000FB92022DA6146F004060125226893691A
:1055600013F4807F05D046F001064FF48071D161BD
:10557000012513F4806F06D046F0080622684FF428
:105580008061D161012513F4007F24D046F002062A
:1055900023684FF40072DA6101252046FFF766FFA9
:1055A0002268536823F0FF7323F48B3323F4FF73D3
:1055B00023F001035360636C33436364202384F856
:1055C0004130002384F8423084F840302846BDE85A
:1055D000F0810025C2E7002DF8D0DEE770B5044663
:1055E0000D46164623689B6913F0020F22D13246FE
:1055F00029462046FFF768FFF0B9B5F1FF3FF1D02B
:10560000FDF7A6FA801BA84201D8002DEAD1236835
:105610009B6913F0020FE5D1636C43F020036364D0
:10562000202384F84130002384F8423084F840304D
:10563000012000E0002070BD0120FCE72DE9F843C7
:105640000546884617461E46DDF820902B689C6963
:1056500038EA04040CBF01230023BB4227D14A4689
:1056600031462846FFF730FF20BBB6F1FF3FEDD0B3
:10567000FDF76EFAA0EB0900B04201D8002EE5D18B
:105680002B689B6938EA03030CBF01230023BB424C
:10569000DCD16B6C43F020036B64202385F8413030
:1056A000002385F8423085F84030012000E00020DA
:1056B000BDE8F8830120FBE72DE9F04182B0044604
:1056C00090461D46089E099F194B00934FF080732A
:1056D000EAB2FFF7DCFE3A4631462046FFF77EFF8E
:1056E000F8B9012D0ED123685FFA88F29A6200970B
:1056F0003346002280212046FFF7A0FFA8B902B060
:10570000BDE8F08123684FEA18229A623A46314692
:105710002046FFF763FF30B923685FFA88F29A6288
:10572000E5E70120EBE70120E9E70120E7E700BF1B
:10573000002000802DE9F04182B0044690461D46CD
:10574000089E099F184B00930023EAB2FFF79FFEC3
:105750003A4631462046FFF741FFF8B9012D0ED1F8
:1057600023685FFA88F29A6200973346002240214C
:105770002046FFF763FFA8B902B0BDE8F0812368B7
:105780004FEA18229A623A4631462046FFF726FF32
:1057900030B923685FFA88F29A62E5E70120EBE707
:1057A0000120E9E70120E7E70020008070B504460A
:1057B0000D46164604E023689B6913F0200F12D0B3
:1057C00023689B6913F0200F1BD1324629462046DF
:1057D000FFF77AFEB8B9FDF7BBF9801BA842EAD8FB
:1057E000002DEDD1E7E7636C43F0200363642023D1
:1057F00084F84130002384F8423084F8403001209E
:1058000000E0002070BD0120FCE700285FD010B54B
:10581000044690F84130002B48D0242384F84130CE
:105820002268136823F0010313606368226823F081
:10583000706313612268936823F400439360E36804
:10584000012B38D0A368226843F404439360E368D3
:10585000022B36D02268536823F400635360226819
:10586000536843F0007343F4004353602268D368E5
:1058700023F40043D360236962691343A16922685A
:1058800043EA0123D360E369216A22680B43136072
:105890002268136843F00103136000206064202332
:1058A00084F84130206384F8420010BD80F8403015
:1058B000FCF736FEB1E7A368226843F40043936027
:1058C000C5E72268536843F400635360C7E70120CB
:1058D0007047A8B110B50446242380F8413002680F
:1058E000136823F001031360FCF760FE002060647E
:1058F00084F84100206384F8420084F8400010BD21
:10590000012070472DE9F04F83B00E46BDF834A05A
:105910000E9D90F84110C9B2202940F0BB8004468A
:10592000904699460C9BCBB1BAF1000F16D090F877
:105930004030012B00F0B2804FF0010B80F840B0F6
:10594000FDF706F90746009019235A464FF4004127
:105950002046FFF773FE30B101209CE04FF4007346
:105960006364012097E0212384F84130402384F8C8
:105970004230002363640C9A6262A4F82AA0636335
:10598000019700954B46424631462046FFF794FE6C
:1059900070B9638D9BB2FF2B0FD9FF2222850023A4
:1059A00000934FF0807331462046FFF770FD21E0F1
:1059B000002384F8403058466DE0628D92B2228513
:1059C000002300934FF00073D2B231462046FFF718
:1059D0005EFD0FE0628D92B22285002300934FF0AE
:1059E0000073D2B231462046FFF751FD638D9BB262
:1059F000002B33D03A4629462046FFF7EFFD00281A
:105A00004ED1626A236812789A62636A01336362D4
:105A1000638D9BB2013B9BB26385238D013B9BB29F
:105A20002385628D92B2002AE0D0002BDED1009750
:105A30002B46002280212046FFF700FE90BB638D9D
:105A40009BB2FF2BC6D9FF222285002300934FF083
:105A5000807331462046FFF71AFDC7E73A462946CC
:105A60002046FFF7A3FEF8B923682022DA612168F7
:105A70004B6823F0FF7323F48B3323F4FF7323F07D
:105A800001034B6084F84120002384F8423084F8FD
:105A9000403000E0022003B0BDE8F08F0220FAE7BA
:105AA0000120F8E70120F6E70120F4E72DE9F04FA7
:105AB00083B00E46BDF834A00E9D90F84110C9B2D7
:105AC000202940F0BC800446904699460C9BCBB1FF
:105AD000BAF1000F16D090F84030012B00F0B380DF
